:020000040800F2
:10000000F806002089010008411F0008211E000891
:100010003D1F000891020008D120000800000000E8
:10002000000000000000000000000000F11F0008B8
:10003000A502000800000000B11F000849200008C8
:10004000A3010008A3010008A3010008A301000800
:10005000A3010008A3010008A3010008A3010008F0
:10006000A3010008A3010008A3010008A3010008E0
:10007000A3010008A3010008A3010008A3010008D0
:10008000A3010008A3010008A3010008A3010008C0
:10009000C120000895020008A3010008A301000880
:1000A000A3010008A3010008A3010008A3010008A0
:1000B000A3010008A3010008A3010008A301000890
:1000C000A3010008A3010008A3010008A301000880
:1000D000A3010008A3010008A3010008A301000870
:1000E000A3010008A3010008A301000800F002F822
:1000F00000F03AF80AA090E8000C82448344AAF188
:100100000107DA4501D100F02FF8AFF2090EBAE885
:100110000F0013F0010F18BFFB1A43F0010318473B
:10012000C4210000E4210000103A24BF78C878C13F
:10013000FAD8520724BF30C830C144BF04680C60ED
:10014000704700000023002400250026103A28BF35
:1001500078C1FBD8520728BF30C148BF0B60704739
:100160001FB51FBD10B510BD00F058F81146FFF7C0
:10017000F7FF02F00FF800F076F803B4FFF7F2FF94
:1001800003BC00F07DF8000009488047094800479B
:10019000FEE7FEE7FEE7FEE7FEE7FEE7FEE7FEE737
:1001A000FEE7FEE704480549054A064B7047000094
:1001B000BD200008ED000008F8000020F80600202F
:1001C000F8020020F80200204FF0000200B51346AC
:1001D00094469646203922BFA0E80C50A0E80C5067
:1001E000B1F12001BFF4F7AF090728BFA0E80C5018
:1001F00048BF0CC05DF804EB890028BF40F8042B11
:1002000008BF704748BF20F8022B11F0804F18BF7D
:1002100000F8012B7047704770477047754600F033
:100220002BF8AE4605006946534620F00700854688
:1002300018B020B5FFF7B6FFBDE820404FF000062C
:100240004FF000074FF000084FF0000BAC46ACE851
:10025000C009ACE8C009ACE8C009ACE8C00921F0AD
:1002600007018D46704710B50446AFF30080204665
:10027000BDE81040FFF781BF004870471000002024
:1002800001491820ABBEFEE72600020070470000BF
:10029000FFE7FEE780B540F2C800C2F2000000F0C0
:1002A000ADFA80BD7047000081B0EFF3108072B6E8
:1002B0000090FFE7FEE7000084B0029001910298F1
:1002C00090F820008DF803009DF80300012805D068
:1002D000FFE79DF8030002280AD1FFE7019A029880
:1002E000016848691043486100208DF80F0008E05C
:1002F0000299486A40F48020486201208DF80F007E
:10030000FFE79DF80F0004B07047000088B006902A
:10031000059104920393069890F820008DF8070049
:1003200006980068806800900598806808B9FFE723
:1003300000E0FFE79DF80700012806D0FFE79DF8E1
:100340000700022840F08080FFE79DF80300400787
:1003500000280CD4FFE79DF803000007002806D40E
:10036000FFE79DF80300C006002864D5FFE700986A
:10037000C0F301600290029901208840039908604F
:100380000598806868B9FFE705980168C06840EA89
:10039000415006990968029A01EB0211C1F88001E7
:1003A0000EE005994A688868C96840EAC2000843B7
:1003B00006990968029A01EB0211C1F88001FFE772
:1003C0000598006906990968029A01EB0211C1F8C3
:1003D00084010598007D01280CD1FFE7069800688C
:1003E000029900EB0111D1F8840140F48070C1F84A
:1003F0008401FFE70498406806990968029A01EBB6
:100400000211C1F88C010498006806990968029AE3
:1004100001EB0211C1F8880106980068029900EB0F
:100420000111D1F8800140F00100C1F880010020E5
:100430008DF81F0011E00699486A40F400104862E8
:1004400001208DF81F0008E00699486A40F48020DA
:10045000486201208DF81F00FFE79DF81F0008B0DB
:100460007047000086B004900391049800680190E2
:10047000049890F820008DF803009DF803000128EF
:1004800006D0FFE79DF80300022840F09B80FFE7BD
:100490000199D1F8000240F00100C1F80002039870
:1004A000406900F01F01012088400290029A0199E2
:1004B000D1F81C029043C1F81C020398C069F0B93E
:1004C000FFE7029A0199D1F80C029043C1F80C029F
:1004D000039A9088D168526940EA0140019901EB82
:1004E000C201C1F84002039A10889168526940EA3B
:1004F0000140019901EBC201C1F84402FFE70398F2
:10050000C06901281ED1FFE7029A0199D1F80C02B7
:100510001043C1F80C02039A90881168526940EAAE
:100520000140019901EBC201C1F84002039A908990
:100530009168526940EA0140019901EBC201C1F89A
:100540004402FFE70398806940B9FFE7029A0199E6
:10055000D1F804029043C1F8040207E0029A01991D
:10056000D1F804021043C1F80402FFE703980069C0
:1005700040B9FFE7029A0199D1F814029043C1F8FB
:10058000140207E0029A0199D1F814021043C1F84D
:100590001402FFE70398006A012808D1FFE7029AD6
:1005A0000199D1F81C021043C1F81C02FFE7019920
:1005B000D1F8000220F00100C1F8000200208DF8FF
:1005C000170008E00499486A40F48020486201203E
:1005D0008DF81700FFE79DF8170006B07047000080
:1005E00081B0009001B0704786B0049003910292F0
:1005F0000193049890F820008DF803009DF8030003
:10060000012806D0FFE79DF80300022840F0E880AB
:10061000FFE7039880B9FFE704980068C068800787
:1006200048B9FFE70499486A40F400104862012085
:100630008DF81700DDE00FE004980068006980077E
:1006400048B9FFE70499486A40F400104862012065
:100650008DF81700CDE0FFE704980068039900EBE0
:100660000110D0F8B00100F00400029988600298EF
:10067000806858B9FFE704980068039900EB0110FF
:10068000D0F8B001400D029908600AE004980068B3
:10069000039900EB0110D0F8B001C008029948603E
:1006A000FFE704980068039900EB0110D0F8B0014F
:1006B00000F002000299C86004980068039900EBFA
:1006C0000110D0F8B40100F00F00082804D3FFE7B0
:1006D0000299082008610BE004980068039900EB78
:1006E0000110D0F8B40100F00F0002990861FFE793
:1006F00004980068039900EB0110D0F8B40180B2AF
:10070000000A0299886104980068039900EB0110BF
:10071000D0F8B401000C029948610498006803996C
:1007200000EB0110D0F8B801019908700498006836
:10073000039900EB0110D0F8B801000A0199487044
:1007400004980068039900EB0110D0F8B801000C80
:100750000199887004980068039900EB0110D0F8A3
:10076000B801000E0199C87004980068039900EB65
:100770000110D0F8BC010199087104980068039930
:1007800000EB0110D0F8BC01000A019948710498EF
:100790000068039900EB0110D0F8BC01000C01992E
:1007A000887104980068039900EB0110D0F8BC012F
:1007B000000E0199C871039838B9FFE704980168E1
:1007C000C86840F02000C86006E004980168086925
:1007D00040F020000861FFE700208DF8170008E0D6
:1007E0000499486A40F48020486201208DF817007F
:1007F000FFE79DF8170006B07047000080B58AB08B
:1008000009900020089009980068406907900998AD
:10081000006840680690099800688068059009980B
:100820000068C068049009980068006903900998FE
:100830000068806902909DF81C00C007002800F045
:100840009480FFE79DF81400C00758B3FFE70998AC
:100850000168012088609DF814008007002804D5F5
:10086000FFE7099800F08EFB1BE09DF8140040079D
:10087000002805D5FFE7089840F4006008900FE0D5
:100880009DF814000007002805D5FFE7089840F4FC
:100890008050089003E0099800F070FBFFE7FFE745
:1008A000FFE7FFE79DF81500C00760B3FFE7099871
:1008B00001684FF4807088609DF81500800700285B
:1008C00004D5FFE7099800F065FB1BE09DF81500D3
:1008D0004007002805D5FFE7089840F4005008902D
:1008E0000FE09DF815000007002805D5FFE70898E0
:1008F00040F48040089003E0099800F047FBFFE7D0
:10090000FFE7FFE7FFE79DF81600C00760B3FFE7CA
:10091000099801684FF4803088609DF816008007C0
:10092000002804D5FFE7099800F03CFB1BE09DF888
:1009300016004007002805D5FFE7089840F400405E
:1009400008900FE09DF816000007002805D5FFE786
:10095000089840F48030089003E0099800F01EFBEE
:10096000FFE7FFE7FFE7FFE7FFE79DF81C00000751
:10097000002810D5FFE79DF81000C006002809D513
:10098000FFE7089840F4007008900998016810206B
:10099000C860FFE7FFE79DF81C00400700280FD55F
:1009A000FFE79DF810000007002808D5FFE7099829
:1009B00001680820C860099800F06AFAFFE7FFE7BD
:1009C0009DF81C00800700280BD5FFE709980068F8
:1009D000C068800720B1FFE7099800F05DFAFFE7E3
:1009E000FFE79DF81C004006002810D5FFE79DF8A2
:1009F0000C00C006002809D5FFE7089840F4806085
:100A000008900998016810200861FFE7FFE79DF84A
:100A10001C00800600280FD5FFE79DF80C0000079A
:100A2000002808D5FFE7099801680820086109989F
:100A300000F052FAFFE7FFE79DF81C00C00600280F
:100A40000BD5FFE7099800680069800720B1FFE730
:100A5000099800F045FAFFE7FFE79DF81E008007C0
:100A600000280FD5FFE79DF81800C006002808D51C
:100A7000FFE70998016810204860099800F034FAEF
:100A8000FFE7FFE79DF81E00C00778B1FFE79DF87C
:100A900018000007002808D5FFE70998016808201A
:100AA0004860099800F082FAFFE7FFE79DF81D0013
:100AB0000006002840F18D80FFE79DF818004007F0
:100AC000002840F18180FFE79DF81D00C00750B16C
:100AD000FFE79DF80800C00728B1FFE7089840F03D
:100AE00001000890FFE79DF81D00800700280BD546
:100AF000FFE79DF808008007002805D5FFE7089864
:100B000040F002000890FFE79DF81D004007002814
:100B10000BD5FFE79DF808004007002805D5FFE743
:100B2000089840F004000890FFE79DF81D000007BA
:100B3000002848D5FFE79DF8080010F0700F42D05C
:100B4000FFE7029800F0700001460191102814D0D0
:100B5000FFE70198202815D0FFE70198302816D02C
:100B6000FFE70198402817D0FFE70198502818D0D8
:100B7000FFE70198602819D01DE0089840F00800B0
:100B8000089019E0089840F01000089014E00898C8
:100B900040F0200008900FE0089840F040000890D6
:100BA0000AE0089840F08000089005E0089840F4BA
:100BB0008070089000E0FFE709980168886920F0DC
:100BC00070008861FFE7FFE709980168042048602A
:100BD000FFE7089848B1FFE7089A0999486A104367
:100BE00048620998FFF7FCFCFFE70AB080BD0000EF
:100BF00080B584B00290029820B9FFE701208DF8FB
:100C00000F00E0E0029890F8200020B9FFE702987A
:100C100000F0DEF8FFE702980168086840F0010084
:100C2000086000F06FFB0190FFE7029800684068E1
:100C3000C007A8B9FFE700F065FB0199401A0B282F
:100C40000DD3FFE70299486A40F4003048620299E8
:100C5000052081F8200001208DF80F00B3E0E4E7C3
:100C600002980168086820F00200086000F04AFB62
:100C70000190FFE70298006840688007002815D5BA
:100C8000FFE700F03FFB0199401A0B280DD3FFE767
:100C90000299486A40F4003048620299052081F8C0
:100CA000200001208DF80F008DE0E3E70298007E20
:100CB000012807D1FFE702980168086840F080002A
:100CC000086006E002980168086820F0800008606B
:100CD000FFE70298407E012807D1FFE702980168EC
:100CE000086840F04000086006E002980168086863
:100CF00020F040000860FFE70298807E012807D1BD
:100D0000FFE702980168086840F02000086006E0EC
:100D100002980168086820F020000860FFE7029848
:100D2000C07E012807D1FFE702980168086820F01B
:100D30001000086006E002980168086840F01000A2
:100D40000860FFE70298007F012807D1FFE70298BB
:100D50000168086840F00800086006E00298016831
:100D6000086820F008000860FFE70298407F01282B
:100D700007D1FFE702980168086840F004000860A6
:100D800006E002980168086820F004000860FFE7A8
:100D9000029B19685A689868D3F80CC040EA0C00A6
:100DA000D3F810C040EA0C005B691843013A1043C5
:100DB000C861029900204862029A012182F820103D
:100DC0008DF80F00FFE79DF80F0004B080BD000014
:100DD00080B58CB00B9000200A9009900890079085
:100DE0000B98006846F20041C4F2000188424CD1E1
:100DF000FFE7FFE741F21C00C4F20200016841F086
:100E000000710160006800F0007006900698FFE72E
:100E1000FFE741F21800C4F20200016841F004014A
:100E20000160006800F0040005900598FFE74FF4AA
:100E300000600790002003900890099040F60000A1
:100E4000C4F20100009007A9019100F0B3F80098E6
:100E500001994FF4805207920222089203220A92CB
:100E600000F0A8F8039A14200290114600F0E6FA68
:100E7000029800F0D9FA039A15200490114600F068
:100E8000DDFA049800F0D0FAFFE70CB080BD000056
:100E900081B0009001B0704780B582B00190019898
:100EA00040F27802C2F20002009240F27003C2F2F5
:100EB00000030021FFF798FB0098006840F203113F
:100EC000884207D1FFE740F2C401C2F200010120CD
:100ED0000870FFE702B080BD81B0009001B070479C
:100EE00081B0009001B0704781B0009001B07047B0
:100EF00080B584B00290029890F8200001282FD18C
:100F0000FFE70299022081F8200002980168086832
:100F100020F00100086000F0F5F90190FFE7029869
:100F200000684068C007A8B1FFE700F0EBF901993D
:100F3000401A0B280DD3FFE70299486A40F40030AD
:100F400048620299052081F8200001208DF80F00E9
:100F50000FE0E4E70299002048628DF80F0008E0F6
:100F60000299486A40F40020486201208DF80F0081
:100F7000FFE79DF80F0004B080BD000081B0009035
:100F800001B0704781B0009001B0704781B000900F
:100F900001B0704781B0009001B0704781B00090FF
:100FA00001B0704781B0009001B0704781B00090EF
:100FB00001B0704790B00F900E9100200D900990F5
:100FC000FFE70E9800680D99C840002800F07F8167
:100FD000FFE70D99012088400C900E9800680C994D
:100FE00008400B900B980C99884240F06C81FFE709
:100FF0000E9840680590002851D0FFE70598012819
:101000003AD0FFE7059802283FD0FFE7059803286C
:101010005FD0FFE70598112832D0FFE70598122826
:1010200038D0FFE705980021C1F21101884236D07F
:10103000FFE705980021C1F2120188422FD0FFE797
:1010400005980021C1F22101884228D0FFE70598C8
:101050000021C1F22201884221D0FFE7059800213A
:10106000C1F2310188421AD0FFE705980021C1F290
:101070003201884213D02FE00E98C06809902CE00E
:101080000E98C0680430099027E00E98C0680830B8
:10109000099022E00E98C0680C3009901DE00E986F
:1010A000806818B9FFE70420099011E00E98806865
:1010B000012806D1FFE7082009900C980F990861D4
:1010C00005E0082009900C980F994861FFE7FFE7B9
:1010D00003E00020099000E0FFE70B98FF2803D809
:1010E000FFE70F98049003E00F9804300490FFE7A7
:1010F000049808900B98FF2804D8FFE70D9880000B
:10110000039006E00D996FF01F0000EB8100039043
:10111000FFE70398079008980068079A0F2191400D
:101120008843099991400843089908600E98C0794E
:10113000C006002840F1C680FFE7FFE741F2180033
:10114000C4F20200016841F001010160006800F092
:10115000010006900698FFE70D9820F00300082193
:10116000C4F2010140580A900D9800F0030081007C
:101170000F2000FA01F10A9888430A900F9840F670
:101180000001C4F20101884203D1FFE70020029070
:1011900026E00F9840F60041C4F20101884203D1D5
:1011A000FFE70120019018E00F9841F20001C4F21E
:1011B0000101884203D1FFE7022000900AE00F9965
:1011C00041F20042C4F201020420914208BF032010
:1011D0000090FFE700980190FFE701980290FFE779
:1011E00002980D9901F00301890000FA01F10A98B3
:1011F00008430A900A980D9921F003010822C4F2CD
:10120000010288500E988079C006002809D5FFE7B2
:101210000B9A40F20841C4F20101086810430860CB
:1012200008E00B9A40F20841C4F2010108689043BB
:101230000860FFE70E9880798006002809D5FFE74F
:101240000B9A40F20C41C4F2010108681043086097
:1012500008E00B9A40F20C41C4F201010868904387
:101260000860FFE70E9880798007002809D5FFE71E
:101270000B9A40F20441C4F201010868104308606F
:1012800008E00B9A40F20441C4F20101086890435F
:101290000860FFE70E988079C00748B1FFE70B9A16
:1012A00040F20041C4F2010108681043086008E000
:1012B0000B9A40F20041C4F20101086890430860B3
:1012C000FFE7FFE7FFE70D9801300D9079E610B0DA
:1012D0007047000082B00190ADF802108DF8012037
:1012E0009DF8010028B1FFE7BDF8020001990861EF
:1012F00005E0BDF80200000401990861FFE702B0B3
:101300007047000040F2F000C2F200000068704731
:1013100040F20400C2F20000027840F2F001C2F292
:1013200000010868104408607047000080B542F270
:101330000001C4F20201086840F0100008600320B8
:1013400000F096F80F2000F005F800F03BF80020C0
:1013500080BD000080B582B0009040F20000C2F273
:101360000000006840F20401C2F200010A784FF464
:101370007A71B1FBF2F1B0FBF1F000F049FD20B160
:10138000FFE701208DF8070018E000980F280DD81E
:10139000FFE700994FF0FF30002200F04FF800986F
:1013A00040F20801C2F20001086003E001208DF85C
:1013B000070003E000208DF80700FFE79DF8070015
:1013C00002B080BD83B0FFE741F21800C4F2020012
:1013D000016841F001010160006800F00100029025
:1013E0000298FFE7FFE741F21C00C4F20200016827
:1013F00041F080510160006800F080500190019838
:10140000FFE7FFE70421C4F201010868009000989B
:1014100020F0E0600090009840F00070009000988C
:101420000860FFE703B0704780B582B08DF8070011
:101430009DF9070000F04EFE02B080BD80B586B079
:101440008DF81700049103920020029000F05AFEDC
:1014500002909DF91700019002980499039A00F0F8
:1014600071FD0146019800F055FE06B080BD0000F8
:1014700080B582B00190019800F06EFE02B080BD90
:1014800080B584B002900191029820B9FFE7012055
:101490008DF80F001BE1019842F20001C4F2020135
:1014A000096801F00701884216D9FFE742F20000FF
:1014B000C4F20200016821F00701019A11430160A2
:1014C000006800F007000199884204D0FFE701207E
:1014D0008DF80F00FBE0FFE70298007880070028F6
:1014E0002AD5FFE7029800784007002809D5FFE7D2
:1014F00041F20401C4F20201086840F4E0600860AF
:10150000FFE7029800780007002809D5FFE741F2BD
:101510000401C4F20201086840F460500860FFE76B
:1015200041F20401C4F20201086820F0F000029ABE
:10153000926810430860FFE702980078C00700280F
:1015400060D0FFE70298406801280ED1FFE741F222
:101550000000C4F2020000688003002804D4FFE702
:1015600001208DF80F00B2E021E0029840680228C7
:101570000ED1FFE741F20000C4F2020000688001D2
:10158000002804D4FFE701208DF80F009FE00DE054
:1015900041F20000C4F2020000688007002804D471
:1015A000FFE701208DF80F0091E0FFE7FFE741F230
:1015B0000401C4F20201086820F00300029A526894
:1015C00010430860FFF79EFE0090FFE741F2040021
:1015D000C4F20200006800F00C0002994968B0EB08
:1015E000810F0ED0FFE7FFF78DFE0099401A41F200
:1015F0008931884204D3FFE703208DF80F0066E0AD
:10160000E4E7FFE7019842F20001C4F20201096831
:1016100001F00701884216D2FFE742F20000C4F24F
:101620000200016821F00701019A1143016000687E
:1016300000F007000199884204D0FFE701208DF8EF
:101640000F0044E0FFE702980078400700280CD51F
:10165000FFE741F20401C4F20201086820F4E060EF
:10166000029AD26810430860FFE7029800780007EA
:1016700000280DD5FFE741F20401C4F20201086819
:1016800020F46050029A126940EAC2000860FFE745
:1016900000F022F841F20401C4F202010968C9B263
:1016A0000A0942F2C221C0F60001895CC84040F23A
:1016B0000001C2F20001086040F20800C2F200001E
:1016C0000068FFF747FE00208DF80F00FFE79DF848
:1016D0000F0004B080BD000086B00020059004908B
:1016E00003900290019041F20400C4F202000068ED
:1016F0000590059800F00C000146009100283FD0AD
:10170000FFE70098042804D0FFE70098082806D0D7
:1017100037E041F20020C0F27A00019037E00598EE
:10172000C0F3834142F2D220C0F60000405C029038
:101730009DF81600C007C0B1FFE741F20400C4F2F3
:1017400002000068C0F3404142F2E220C0F600000F
:10175000405C0490029841F20021C0F27A014843B3
:101760000499B0FBF1F0039007E0029840F60011F5
:10177000C0F23D0148430390FFE70398019006E063
:10178000FFE741F20020C0F27A000190FFE70198E4
:1017900006B0704780B586B00490049820B9FFE782
:1017A00001208DF817002EE304980078C007002868
:1017B00000F0AE80FFE741F20400C4F202000068CE
:1017C00000F00C00042813D0FFE741F20400C4F23B
:1017D0000200006800F00C0008281BD1FFE741F26E
:1017E0000400C4F202000068C003002812D5FFE71D
:1017F00041F20000C4F2020000688003002808D50E
:10180000FFE70498406820B9FFE701208DF8170032
:10181000F9E27CE0FFE704984068B0F5803F09D129
:10182000FFE741F20001C4F20201086840F4803091
:10183000086032E00498406868B9FFE741F20001AF
:10184000C4F20201086820F480300860086820F4BF
:101850008020086020E004984068B0F5A02F0DD1EA
:10186000FFE741F20001C4F20201086840F4802061
:101870000860086840F4803008600CE041F2000124
:10188000C4F20201086820F480300860086820F47F
:1018900080200860FFE7FFE7FFE7FFE70498406864
:1018A000D0B1FFE7FFF72EFD0390FFE741F2000004
:1018B000C4F202000068800300280CD4FFE7FFF7A1
:1018C00021FD0399401A652804D3FFE703208DF812
:1018D000170098E2EAE719E0FFF714FD0390FFE72D
:1018E00041F20000C4F202000068800300280CD519
:1018F000FFE7FFF707FD0399401A652804D3FFE7C8
:1019000003208DF817007EE2EAE7FFE7FFE7FFE735
:10191000049800788007002840F18D80FFE741F2AD
:101920000400C4F20200006810F00C0F13D0FFE7AF
:1019300041F20400C4F20200006800F00C00082824
:1019400029D1FFE741F20400C4F202000068C0039D
:10195000002820D4FFE741F20000C4F20200006832
:101960008007002809D5FFE704980069012804D002
:10197000FFE701208DF8170045E241F20001C4F2B3
:101980000201086820F0F800049A526940EAC20097
:101990000860FFE74EE00498006958B3FFE70021B4
:1019A000C4F2422101200860FFF7ACFC0390FFE77E
:1019B00041F20000C4F202000068800700280CD445
:1019C000FFE7FFF79FFC0399401A032804D3FFE7C2
:1019D00003208DF8170016E2EAE741F20001C4F295
:1019E0000201086820F0F800049A526940EAC20037
:1019F00008601EE00021C4F2422100200860FFF7C9
:101A000081FC0390FFE741F20000C4F2020000688D
:101A1000800700280CD5FFE7FFF774FC0399401AF4
:101A2000032804D3FFE703208DF81700EBE1EAE772
:101A3000FFE7FFE7FFE7049800780007002848D594
:101A4000FFE70498806918B3FFE740F28041C4F2D1
:101A5000422101200860FFF755FC0390FFE741F2A7
:101A60002400C4F202000068800700280CD4FFE7BD
:101A7000FFF748FC0399401A032804D3FFE703202B
:101A80008DF81700BFE1EAE7012000F093FA1FE0AC
:101A900040F28041C4F2422100200860FFF732FC8E
:101AA0000390FFE741F22400C4F2020000688007BF
:101AB00000280CD5FFE7FFF725FC0399401A0328FF
:101AC00004D3FFE703208DF817009CE1EAE7FFE766
:101AD000FFE7049800784007002840F1D880FFE72E
:101AE00000208DF8070041F21C00C4F202000068DB
:101AF000C000002813D4FFE7FFE741F21C00C4F246
:101B00000200016841F080510160006800F08050DF
:101B100000900098FFE701208DF80700FFE747F2EB
:101B20000000C4F200000068C005002822D4FFE7CE
:101B300047F20001C4F20001086840F480700860B8
:101B4000FFF7E0FB0390FFE747F20000C4F200005C
:101B50000068C00500280CD4FFE7FFF7D3FB03990A
:101B6000401A652804D3FFE703208DF817004AE1E7
:101B7000EAE7FFE7FFE70498C068012809D1FFE71B
:101B800041F22001C4F20201086840F0010008603F
:101B900031E00498C06868B9FFE741F22001C4F25F
:101BA0000201086820F001000860086820F00400C5
:101BB00008601FE00498C06805280DD1FFE741F2D6
:101BC0002001C4F20201086840F0040008600868BF
:101BD00040F0010008600CE041F22001C4F2020173
:101BE000086820F001000860086820F00400086020
:101BF000FFE7FFE7FFE7FFE70498C068E0B1FFE712
:101C0000FFF780FB0390FFE741F22000C4F20200DF
:101C10000068800700280ED4FFE7FFF773FB0399E5
:101C2000401A41F28931884204D3FFE703208DF83E
:101C30001700E8E0E8E71BE0FFF764FB0390FFE72D
:101C400041F22000C4F202000068800700280ED58F
:101C5000FFE7FFF757FB0399401A41F289318842A9
:101C600004D3FFE703208DF81700CCE0E8E7FFE797
:101C70009DF80700012809D1FFE741F21C01C4F2D9
:101C80000201086820F080500860FFE7FFE7049831
:101C9000C069002800F0B380FFE741F20400C4F2FD
:101CA0000200006800F00C00082800F08280FFE7C6
:101CB0000498C06902285CD1FFE76021C4F2422188
:101CC00000200860FFF71EFB0390FFE741F20000D1
:101CD000C4F202000068800100280CD5FFE7FFF77E
:101CE00011FB0399401A032804D3FFE703208DF862
:101CF000170088E0EAE70498006AB0F5803F0CD14D
:101D0000FFE741F20401C4F20201086820F4003048
:101D1000049A926810430860FFE741F20401C4F29C
:101D20000201086820F47410049B1A6A5B6A1A4363
:101D3000104308606021C4F2422101200860FFF7CF
:101D4000E1FA0390FFE741F20000C4F202000068EC
:101D5000800100280CD4FFE7FFF7D4FA0399401A5A
:101D6000032804D3FFE703208DF817004BE0EAE7D0
:101D70001EE06021C4F2422100200860FFF7C2FA91
:101D80000390FFE741F20000C4F202000068800106
:101D900000280CD5FFE7FFF7B5FA0399401A03288E
:101DA00004D3FFE703208DF817002CE0EAE7FFE7F4
:101DB00024E00498C069012804D1FFE701208DF8D0
:101DC000170020E041F20400C4F202000068029013
:101DD000029800F480300499096A884208D1FFE72C
:101DE000029800F470100499496A884204D0FFE711
:101DF00001208DF8170006E0FFE7FFE7FFE700206E
:101E00008DF81700FFE79DF8170006B080BD0000B1
:101E100080B582B00190019800F0ECF802B080BD6E
:101E2000FFE7FEE780B58CB040F2C800C2F20000C8
:101E3000009046F20041C4F20001016010214160AF
:101E40004FF08041816000210191C1604FF48032E8
:101E500002614161017641768176C17601774177F1
:101E6000FEF7C6FE18B1FFE7FEF71EFAFFE70121F5
:101E70000A910A2007900020069042F26002029226
:101E8000039004920590089009910B9040F2C800CD
:101E9000C2F2000002A9FEF7E5FA0CB080BD000016
:101EA00080B58AB000200990089007900690FFE75F
:101EB00041F21800C4F20200016841F01001016013
:101EC000006800F0100005900598FFE7FFE741F279
:101ED0001800C4F20200016841F0200101600068AE
:101EE00000F0200004900498FFE7FFE741F218009B
:101EF000C4F20200016841F004010160006800F0D2
:101F0000040003900398FFE741F20000C4F20100CF
:101F100002904FF40051009100220192FFF7DAF98C
:101F2000009A0199029806920122079208910221D3
:101F3000099106A9FFF73EF80AB080BDFFE7FEE76A
:101F4000FFE7FEE788B0079006910592079800F03A
:101F5000070004900498C0F10700052803D3FFE7A9
:101F60000420019004E00498C0F107000190FFE70D
:101F70000198039004980430062803D8FFE7002056
:101F8000009003E0049803380090FFE70098029067
:101F900006980399012202FA01F101390840029BD7
:101FA000984005999A40013A1140084308B070479B
:101FB0007047000082B00190019840F20001C2F227
:101FC00000010968C90844F6D352C1F26202A1FBBC
:101FD0000221890948430090FFE700BFFFE700980E
:101FE000411E00910028F8D1FFE702B070470000C1
:101FF0007047000080B582B0009000980138B0F1C1
:10200000807F03D3FFE70120019019E00098013899
:102010004EF21401CEF2000108604FF0FF300F21A4
:1020200000F078F84EF21801CEF2000100200860AE
:102030004EF21002CEF20002072111600190FFE77C
:10204000019802B080BD000080B5FFF761F980BD46
:1020500080B590B006A800902821FEF7B5F800984A
:1020600000230593049303930293019301220692A4
:102070004FF48031079108930A9202220D920E913B
:102080004FF4C0110F91FFF785FB18B1FFE7FEF782
:102090000BF9FFE70F20019002210291002003902D
:1020A0004FF480620492059001A8FFF7E9F918B196
:1020B000FFE7FEF7F9F8FFE710B080BD70470000BA
:1020C00080B540F2C800C2F20000FEF797FB80BD69
:1020D000FFE7FEE781B08DF803009DF903000028BB
:1020E0000ED4FFE79DF9031001F01F02012090407C
:1020F0004A094EF20011CEF2000141F82200FFE73A
:1021000001B070474EF60C50CEF200000068C0F3EC
:102110000220704782B08DF8070000919DF90700FA
:1021200000280AD4FFE7009800019DF907104EF23D
:102130000042CEF2000288540BE0009800019DF8A6
:10214000071001F00F014EF61452CEF2000288542F
:10215000FFE702B07047000083B00290029800F0E1
:10216000070000904EF60C51CEF200010868019075
:1021700001984FF6FF02104001900198009A40EA42
:1021800002200022C0F2FA52104301900198086028
:1021900003B0704780B586B0002001900590FFF72E
:1021A000C5F8FFF755FFFFF77BFEFFF73BFE41F257
:1021B0000000C4F201004FF4005101220292FFF727
:1021C00089F840F2C800C2F200000490FEF790FEC9
:1021D000049802210391FEF76FF8019ADDF808C018
:1021E000039B049840F29C01C2F20001C1F810C0A8
:1021F0004A608A60CA6040F2031EC1F800E00A75B6
:1022000040F29402C2F2000282F800C0537003232D
:1022100093700423D37040F2B403C2F20003FEF7BC
:1022200075F818B1FFE7FEF73FF8FFE740F2B4009A
:10223000C2F20000031D40F2C800C2F2000040F2EA
:102240009C01C2F2000140F29402C2F20002FEF7C9
:102250005DF818B1FFE7FEF727F8FFE740F2B4009A
:10226000C2F2000000F1080340F2C800C2F2000010
:1022700040F29C01C2F2000140F29402C2F200025C
:10228000FEF744F818B1FFE7FEF70EF8FFE7FFE7A7
:1022900040F2C400C2F20000007888B1FFE741F2CA
:1022A0000000C4F201004FF4005100220092FFF739
:1022B00011F8009840F2C401C2F200010870FFE773
:1022C000E6E700000000000000000102030406072A
:1022D000080902030405060708090A0B0C0D0E0F76
:1022E0001010010208230008000000201000000068
:1022F000280100081823000810000020E80600004C
:1023000044010008000000000024F4000100000067
:082310001000000000000000B5
:04000005080000ED02
:00000001FF
